import 'package:bitcoin_base/bitcoin_base.dart';

const List<List<Map<String, dynamic>>> utxos = [
  [
    {
      "utxo": {
        "token": null,
        "tx_hash":
            "895ca6428dbd3c461a5f6ef942d3d3c4ada2610762fd833ef8ad579472130941",
        "value": "500000",
        "vout": 1,
        "script_type": "P2TR",
        "block_height": 74193
      },
      "tx":
          "02000000000101907d7cfe2fdfcc665f029a2c57a9651317e0115e8e71f28b9bea2be1f7825d880000000000fdffffff02aa87398d150000001600147b458433d0c04323426ef88365bd4cfef141ac7520a1070000000000225120207036e1551525db9b907bec80d06388a972537d7c3fd9ca1647cdac3e64308f02473044022069d183774358ee46a31e25c452da041f03bc8d9331d0fb2ece210e533a35b0f702201e22e7487271765b0a11d3f6fc9c9c41e741922693437441a23e7cf5fbacbe3e0121030db9616d96a7b7a8656191b340f77e905ee2885a09a7a1e80b9c8b64ec746fb300000000",
      "scriptpubkey": {
        "script": [
          "OP_1",
          "207036e1551525db9b907bec80d06388a972537d7c3fd9ca1647cdac3e64308f"
        ]
      },
      "p2sh_redeem_script": null,
      "p2wsh_witness_script": null,
      "merkle_proof": null,
      "tree_script": {
        "script": {
          "script": [
            "5e6ae939f1e87542d2b43ba27dabfddee68bb03c0f8ea1893e1f09e2f50e256b",
            BitcoinOpcode.opCheckSig,
            "3a1a902bf14317faffae2568fdcbdc188d9455ae60a2dfbf5dc3b226d7844977",
            "OP_CHECKSIGADD",
            "26733c182391e43d803292c4eb2403e059591fedc2203f2b590e8fd677214d87",
            "OP_CHECKSIGADD",
            "cf65d59727afaa2a63a6dff145acc408a1d9e05f95f5ebc70e58f7342aa2972f",
            "OP_CHECKSIGADD",
            "cf65d59727afaa2a63a6dff145acc408a1d9e05f95f5ebc70e58f7342aa2972f",
            "OP_CHECKSIGADD",
            "OP_3",
            "OP_NUMEQUAL"
          ]
        },
        "leaf_version": 192
      },
      "leaf_script": null,
      "xonly":
          "af82536a8922025e345e6bd10f15061b22ff8d3dacc86dd6403c136d5b47f11e",
      "merkle_root": null,
      "leaf_scripts": null,
      "privateKeys": [
        "4c889b458ae4d09d51266ebb604396468412c2622a4283325f492325e85e9bf4",
        "efd4d62709543c1bae8a22b44640856b48398b7d06f57958760a8695b9f5f171"
      ],
      "address":
          "tb1pypcrdc24z5jahxus00kgp5rr3z5hy5ma0slanjskglx6c0nyxz8suncnq7"
    }
  ],
  [
    {
      "utxo": {
        "token": null,
        "tx_hash":
            "213d213e6ab2224d1d842a89b129a54fe4eaac217a9da9b598202987b13d9124",
        "value": "100000",
        "vout": 1,
        "script_type": "P2TR",
        "block_height": 73941
      },
      "tx":
          "02000000015f924ebef69a6a0e8e9cae4bd7178d662453a8643c448061462e72ff6b2ba600010000006a4730440220390754c4504cd3e1e9bc98c25ed830b4088db0f2e004a33e2b77c9a3b82cbe41022014df61816c68cc06b5158fe39d17cfd7cca447024569c1393665b79f59b7de36012103a5ae93c0b09f2869b2a4e85a1a1318c86da70c48974f9ad28ce7a1876f1a927efdffffff02058f040000000000225120ebda7734544a9baab30347145df9175746b93607efce7de8f7491ee0ff3f521ca086010000000000225120e644163df7b4b9fba40275eda00ba1244039c19ef31958d64268d34fb986cd41b2200100",
      "scriptpubkey": {
        "script": [
          "OP_1",
          "e644163df7b4b9fba40275eda00ba1244039c19ef31958d64268d34fb986cd41"
        ]
      },
      "p2sh_redeem_script": null,
      "p2wsh_witness_script": null,
      "merkle_proof": null,
      "tree_script": {
        "a": {
          "a": {
            "script": {
              "script": [
                "cf65d59727afaa2a63a6dff145acc408a1d9e05f95f5ebc70e58f7342aa2972f",
                BitcoinOpcode.opCheckSig,
                "26733c182391e43d803292c4eb2403e059591fedc2203f2b590e8fd677214d87",
                "OP_CHECKSIGADD",
                BitcoinOpcode.op2,
                "OP_NUMEQUAL"
              ]
            },
            "leaf_version": 192
          },
          "b": {
            "script": {
              "script": [
                "cf65d59727afaa2a63a6dff145acc408a1d9e05f95f5ebc70e58f7342aa2972f",
                BitcoinOpcode.opCheckSig,
              ]
            },
            "leaf_version": 192
          }
        },
        "b": {
          "a": {
            "a": {
              "a": {
                "a": {
                  "script": {
                    "script": [
                      "26733c182391e43d803292c4eb2403e059591fedc2203f2b590e8fd677214d87",
                      BitcoinOpcode.opCheckSig,
                    ]
                  },
                  "leaf_version": 192
                },
                "b": {
                  "script": {
                    "script": [
                      "cf65d59727afaa2a63a6dff145acc408a1d9e05f95f5ebc70e58f7342aa2972f",
                      BitcoinOpcode.opCheckSig,
                    ]
                  },
                  "leaf_version": 192
                }
              },
              "b": {
                "script": {
                  "script": [
                    "6eb5f87f959b1aedbfe4943534bc062d25e356102ab5af7ecbf97a9ed1914768",
                    BitcoinOpcode.opCheckSig,
                  ]
                },
                "leaf_version": 192
              }
            },
            "b": {
              "script": {
                "script": [
                  "cf65d59727afaa2a63a6dff145acc408a1d9e05f95f5ebc70e58f7342aa2972f",
                  BitcoinOpcode.opCheckSig,
                ]
              },
              "leaf_version": 192
            }
          },
          "b": {
            "script": {
              "script": [
                "cf65d59727afaa2a63a6dff145acc408a1d9e05f95f5ebc70e58f7342aa2972f",
                BitcoinOpcode.opCheckSig,
              ]
            },
            "leaf_version": 192
          }
        }
      },
      "leaf_script": null,
      "xonly":
          "26733c182391e43d803292c4eb2403e059591fedc2203f2b590e8fd677214d87",
      "merkle_root": null,
      "leaf_scripts": null,
      "privateKeys": [
        "efd4d62709543c1bae8a22b44640856b48398b7d06f57958760a8695b9f5f171",
        "4c889b458ae4d09d51266ebb604396468412c2622a4283325f492325e85e9bf4"
      ],
      "address":
          "tb1puezpv00hkjulhfqzwhk6qzapy3qrnsv77vv434jzdrf5lwvxe4qsjxzg4c",
      "select_leaf":
          "559a1507e6d2954d0c9699a0ed0e20035b37c136d33af7cde40f47dc8bfabadd"
    },
    {
      "utxo": {
        "token": null,
        "tx_hash":
            "37c7b70e21923247cdf3553bd638d17c2d7750652d293ca70854587804c53b9f",
        "value": "100000",
        "vout": 0,
        "script_type": "P2TR",
        "block_height": 73941
      },
      "tx":
          "02000000014044af25b5a16d8fc2b119745e3d922a38d44df891bebc10d6f5b29853df94b9010000006a4730440220537fa17be875c2b478b355615860d3ffa2237f980762b0a3e5b4afad0e9763bd022012613430d6957b7e56171f0fdcd415112358eafcffb21721261591d2a640ef1d01210301740fade1da66713e00511d4353fce9c9c5b424db08d5447a6ed2b6c4f54b3ffdffffff02a086010000000000225120e644163df7b4b9fba40275eda00ba1244039c19ef31958d64268d34fb986cd41fa080600000000002251205865c2e389c2220db26ec1738514f4bf9392c1720d98cd70dab3657421d7e38fb2200100",
      "scriptpubkey": {
        "script": [
          "OP_1",
          "e644163df7b4b9fba40275eda00ba1244039c19ef31958d64268d34fb986cd41"
        ]
      },
      "p2sh_redeem_script": null,
      "p2wsh_witness_script": null,
      "merkle_proof": null,
      "tree_script": {
        "a": {
          "a": {
            "script": {
              "script": [
                "cf65d59727afaa2a63a6dff145acc408a1d9e05f95f5ebc70e58f7342aa2972f",
                BitcoinOpcode.opCheckSig,
                "26733c182391e43d803292c4eb2403e059591fedc2203f2b590e8fd677214d87",
                "OP_CHECKSIGADD",
                BitcoinOpcode.op2,
                "OP_NUMEQUAL"
              ]
            },
            "leaf_version": 192
          },
          "b": {
            "script": {
              "script": [
                "cf65d59727afaa2a63a6dff145acc408a1d9e05f95f5ebc70e58f7342aa2972f",
                BitcoinOpcode.opCheckSig,
              ]
            },
            "leaf_version": 192
          }
        },
        "b": {
          "a": {
            "a": {
              "a": {
                "a": {
                  "script": {
                    "script": [
                      "26733c182391e43d803292c4eb2403e059591fedc2203f2b590e8fd677214d87",
                      BitcoinOpcode.opCheckSig,
                    ]
                  },
                  "leaf_version": 192
                },
                "b": {
                  "script": {
                    "script": [
                      "cf65d59727afaa2a63a6dff145acc408a1d9e05f95f5ebc70e58f7342aa2972f",
                      BitcoinOpcode.opCheckSig,
                    ]
                  },
                  "leaf_version": 192
                }
              },
              "b": {
                "script": {
                  "script": [
                    "6eb5f87f959b1aedbfe4943534bc062d25e356102ab5af7ecbf97a9ed1914768",
                    BitcoinOpcode.opCheckSig,
                  ]
                },
                "leaf_version": 192
              }
            },
            "b": {
              "script": {
                "script": [
                  "cf65d59727afaa2a63a6dff145acc408a1d9e05f95f5ebc70e58f7342aa2972f",
                  BitcoinOpcode.opCheckSig,
                ]
              },
              "leaf_version": 192
            }
          },
          "b": {
            "script": {
              "script": [
                "cf65d59727afaa2a63a6dff145acc408a1d9e05f95f5ebc70e58f7342aa2972f",
                BitcoinOpcode.opCheckSig,
              ]
            },
            "leaf_version": 192
          }
        }
      },
      "leaf_script": null,
      "xonly":
          "26733c182391e43d803292c4eb2403e059591fedc2203f2b590e8fd677214d87",
      "merkle_root": null,
      "leaf_scripts": null,
      "privateKeys": [
        "efd4d62709543c1bae8a22b44640856b48398b7d06f57958760a8695b9f5f171",
        "4c889b458ae4d09d51266ebb604396468412c2622a4283325f492325e85e9bf4"
      ],
      "address":
          "tb1puezpv00hkjulhfqzwhk6qzapy3qrnsv77vv434jzdrf5lwvxe4qsjxzg4c",
      "select_leaf":
          "559a1507e6d2954d0c9699a0ed0e20035b37c136d33af7cde40f47dc8bfabadd"
    }
  ],
  [
    {
      "utxo": {
        "token": null,
        "tx_hash":
            "09c2e7715b61531b7e1181048a3763599d2d3137175c8f1b3ad01b13258f2291",
        "value": "500000",
        "vout": 1,
        "script_type": "P2TR",
        "block_height": 73970
      },
      "tx":
          "02000000000101b98386d1598e4f36fd8fb58ae8eb23146bcc8cc0c50061381048e09c9d122cd50000000000fdffffff02ae2c4cd0e80000001600147b458433d0c04323426ef88365bd4cfef141ac7520a10700000000002251202c3a5675ab3357f4aca556d5d88c19797ca99da232a9c880d10bffd1643890c002473044022073be70c23475b2ac9d578f23b1938422d955c8a9181f121fff43b8aac729b46402206068c85d72f9a618eacbd6f7cca09057172ab07c2d93d6a0be55712f9e2f53560121030db9616d96a7b7a8656191b340f77e905ee2885a09a7a1e80b9c8b64ec746fb300000000",
      "scriptpubkey": {
        "script": [
          "OP_1",
          "2c3a5675ab3357f4aca556d5d88c19797ca99da232a9c880d10bffd1643890c0"
        ]
      },
      "p2sh_redeem_script": null,
      "p2wsh_witness_script": null,
      "merkle_proof": null,
      "tree_script": {
        "script": {
          "script": [
            "cf65d59727afaa2a63a6dff145acc408a1d9e05f95f5ebc70e58f7342aa2972f",
            BitcoinOpcode.opCheckSig,
            "cf65d59727afaa2a63a6dff145acc408a1d9e05f95f5ebc70e58f7342aa2972f",
            "OP_CHECKSIGADD",
            BitcoinOpcode.op2,
            "OP_NUMEQUAL"
          ]
        },
        "leaf_version": 192
      },
      "leaf_script": {
        "script": {
          "script": [
            "cf65d59727afaa2a63a6dff145acc408a1d9e05f95f5ebc70e58f7342aa2972f",
            BitcoinOpcode.opCheckSig,
            "cf65d59727afaa2a63a6dff145acc408a1d9e05f95f5ebc70e58f7342aa2972f",
            "OP_CHECKSIGADD",
            BitcoinOpcode.op2,
            "OP_NUMEQUAL"
          ]
        },
        "leaf_version": 192
      },
      "xonly":
          "26733c182391e43d803292c4eb2403e059591fedc2203f2b590e8fd677214d87",
      "merkle_root": null,
      "leaf_scripts": null,
      "privateKeys": [
        "efd4d62709543c1bae8a22b44640856b48398b7d06f57958760a8695b9f5f171",
        "efd4d62709543c1bae8a22b44640856b48398b7d06f57958760a8695b9f5f171"
      ],
      "address":
          "tb1p9sa9vadtxdtlft992m2a3rqe0972n8dzx25u3qx3p0lazepcjrqqrn7u4k",
      "select_leaf":
          "fe708fdad31b49db5dfa0388b2322267000841c99a36e11e0658c4b12a9dddee"
    },
    {
      "utxo": {
        "token": null,
        "tx_hash":
            "ba3c1f8b8d87e28f923ab8c7c54135966f9a85e20232e48e4e9d28dd8344d905",
        "value": "100000",
        "vout": 0,
        "script_type": "P2TR",
        "block_height": 74002
      },
      "tx":
          "0200000001cea7d4323dbd8ac4369411a514f0ec7d484a3e96a5b3c51feecc538410cbd38b010000006a47304402203a36642f354e4e7e232a3171f49e1e704ee604eeed9c7f16585301d751659aa102206cfe9ece169730f9b3334b638d80e3801c6febad7ea8db43f27e8b3d040919cc012102d270bf1972d25b81b857b0427055024912397d18c2a96d78b5cffbb52d271e2cfdffffff02a0860100000000002251202c3a5675ab3357f4aca556d5d88c19797ca99da232a9c880d10bffd1643890c08d190600000000002251208706409e487da472e33acc57d7f7446a53416f75b135d70c9ffe93e1e71472d000000000",
      "scriptpubkey": {
        "script": [
          "OP_1",
          "2c3a5675ab3357f4aca556d5d88c19797ca99da232a9c880d10bffd1643890c0"
        ]
      },
      "p2sh_redeem_script": null,
      "p2wsh_witness_script": null,
      "merkle_proof": null,
      "tree_script": {
        "script": {
          "script": [
            "cf65d59727afaa2a63a6dff145acc408a1d9e05f95f5ebc70e58f7342aa2972f",
            BitcoinOpcode.opCheckSig,
            "cf65d59727afaa2a63a6dff145acc408a1d9e05f95f5ebc70e58f7342aa2972f",
            "OP_CHECKSIGADD",
            BitcoinOpcode.op2,
            "OP_NUMEQUAL"
          ]
        },
        "leaf_version": 192
      },
      "leaf_script": {
        "script": {
          "script": [
            "cf65d59727afaa2a63a6dff145acc408a1d9e05f95f5ebc70e58f7342aa2972f",
            BitcoinOpcode.opCheckSig,
            "cf65d59727afaa2a63a6dff145acc408a1d9e05f95f5ebc70e58f7342aa2972f",
            "OP_CHECKSIGADD",
            BitcoinOpcode.op2,
            "OP_NUMEQUAL"
          ]
        },
        "leaf_version": 192
      },
      "xonly":
          "26733c182391e43d803292c4eb2403e059591fedc2203f2b590e8fd677214d87",
      "merkle_root": null,
      "leaf_scripts": null,
      "privateKeys": [
        "efd4d62709543c1bae8a22b44640856b48398b7d06f57958760a8695b9f5f171",
        "efd4d62709543c1bae8a22b44640856b48398b7d06f57958760a8695b9f5f171"
      ],
      "address":
          "tb1p9sa9vadtxdtlft992m2a3rqe0972n8dzx25u3qx3p0lazepcjrqqrn7u4k",
      "select_leaf":
          "fe708fdad31b49db5dfa0388b2322267000841c99a36e11e0658c4b12a9dddee"
    },
    {
      "utxo": {
        "token": null,
        "tx_hash":
            "b28f8343379d53dc8292dfce247509a3163e41a1276ba1b7099e2a36656dcd44",
        "value": "100000",
        "vout": 1,
        "script_type": "P2TR",
        "block_height": 74008
      },
      "tx":
          "020000000001019f2b57886d73c6f7c2b6822f1d2dab60face68ca620dc75f765b83454114228501000000171600147b7bd741d4a1f56f926f1687c8cd88c0384d6418fdffffff02c4190600000000002251204b102237ca3642e45f07b31dedf563034b3f8ce951d55b11a09973f89024b271a0860100000000002251202c3a5675ab3357f4aca556d5d88c19797ca99da232a9c880d10bffd1643890c002473044022045f23929f054793314e3ac92826054d66efc0f249fce76a290706bc8be50b66302202c32db9dd418dc7220ef0ab1533acceb70e2de4e38c170d0d74a71aa773119ef012102c57ee6cffa68bd0beec6d9cb0dd99a10dbc8432232ad35f00a384f54b0c92fc300000000",
      "scriptpubkey": {
        "script": [
          "OP_1",
          "2c3a5675ab3357f4aca556d5d88c19797ca99da232a9c880d10bffd1643890c0"
        ]
      },
      "p2sh_redeem_script": null,
      "p2wsh_witness_script": null,
      "merkle_proof": null,
      "tree_script": {
        "script": {
          "script": [
            "cf65d59727afaa2a63a6dff145acc408a1d9e05f95f5ebc70e58f7342aa2972f",
            BitcoinOpcode.opCheckSig,
            "cf65d59727afaa2a63a6dff145acc408a1d9e05f95f5ebc70e58f7342aa2972f",
            "OP_CHECKSIGADD",
            BitcoinOpcode.op2,
            "OP_NUMEQUAL"
          ]
        },
        "leaf_version": 192
      },
      "leaf_script": {
        "script": {
          "script": [
            "cf65d59727afaa2a63a6dff145acc408a1d9e05f95f5ebc70e58f7342aa2972f",
            BitcoinOpcode.opCheckSig,
            "cf65d59727afaa2a63a6dff145acc408a1d9e05f95f5ebc70e58f7342aa2972f",
            "OP_CHECKSIGADD",
            BitcoinOpcode.op2,
            "OP_NUMEQUAL"
          ]
        },
        "leaf_version": 192
      },
      "xonly":
          "26733c182391e43d803292c4eb2403e059591fedc2203f2b590e8fd677214d87",
      "merkle_root": null,
      "leaf_scripts": null,
      "privateKeys": [
        "efd4d62709543c1bae8a22b44640856b48398b7d06f57958760a8695b9f5f171",
        "efd4d62709543c1bae8a22b44640856b48398b7d06f57958760a8695b9f5f171"
      ],
      "address":
          "tb1p9sa9vadtxdtlft992m2a3rqe0972n8dzx25u3qx3p0lazepcjrqqrn7u4k",
      "select_leaf":
          "fe708fdad31b49db5dfa0388b2322267000841c99a36e11e0658c4b12a9dddee"
    }
  ],
  [
    {
      "utxo": {
        "token": null,
        "tx_hash":
            "6087ddf41456fdb9fc383ba852abd08dc59a2251961cdea272e183be8e7c5d58",
        "value": "5000",
        "vout": 1,
        "script_type": "P2WSH",
        "block_height": 74187
      },
      "tx":
          "0200000000010171d9293be83c1387560963351fda91d6ae195e6f45b570d9444444cbbb2b296c0000000000fdffffff02c17a508d150000001600147b458433d0c04323426ef88365bd4cfef141ac75881300000000000022002088c27bde97700a482464b4147fbed246b6ac8db5570b7725ca3a05f24619d83c0247304402207db4e3b9b4ff2112a748e04a5d2a11255ac515076661c1c490be033629b018f20220554b901dde5519ff3d82c975bef82dd79a96695bddb5db333b4b3d1742bc86500121030db9616d96a7b7a8656191b340f77e905ee2885a09a7a1e80b9c8b64ec746fb300000000",
      "scriptpubkey": {
        "script": [
          "OP_0",
          "88c27bde97700a482464b4147fbed246b6ac8db5570b7725ca3a05f24619d83c"
        ]
      },
      "p2sh_redeem_script": null,
      "p2wsh_witness_script": {
        "script": [
          "OP_3",
          "0226733c182391e43d803292c4eb2403e059591fedc2203f2b590e8fd677214d87",
          "03cf65d59727afaa2a63a6dff145acc408a1d9e05f95f5ebc70e58f7342aa2972f",
          "03cf65d59727afaa2a63a6dff145acc408a1d9e05f95f5ebc70e58f7342aa2972f",
          "OP_3",
          BitcoinOpcode.opCheckMultiSig
        ]
      },
      "merkle_proof": null,
      "tree_script": null,
      "leaf_script": null,
      "xonly": null,
      "merkle_root": null,
      "leaf_scripts": null,
      "privateKeys": [
        "efd4d62709543c1bae8a22b44640856b48398b7d06f57958760a8695b9f5f171",
        "4c889b458ae4d09d51266ebb604396468412c2622a4283325f492325e85e9bf4",
        "efd4d62709543c1bae8a22b44640856b48398b7d06f57958760a8695b9f5f171"
      ],
      "address":
          "tb1q3rp8hh5hwq9ysfryks28l0kjg6m2erd42u9hwfw28gzly3semq7qnzrkrg"
    }
  ],
  [
    {
      "utxo": {
        "token": null,
        "tx_hash":
            "8fb4c8f64db5e5706a9edbde9a43540fe9ce005da34ae7c22d8fccb87b37e691",
        "value": "5000",
        "vout": 1,
        "script_type": "P2SH/P2PKH",
        "block_height": 74187
      },
      "tx":
          "020000000001013ff2cc5702947986aa49cb6864c7e89e20159b79df61c2fc27eca195a707b4000000000000fdffffff02841322aa1d0000001600147b458433d0c04323426ef88365bd4cfef141ac75881300000000000017a91467c4cd3187dfe195e19cf87e17d3b95747961881870247304402201552abf391f4828fb78921ece55f89ad646ae3e9c6abc618d766ccfd5c35f35c022007f9e4ef0d62fc2f1e114a399a0a99bc9f610fe2bdeb1351039229e4f3d4a0e20121030db9616d96a7b7a8656191b340f77e905ee2885a09a7a1e80b9c8b64ec746fb300000000",
      "scriptpubkey": {
        "script": [
          BitcoinOpcode.opHash160,
          "67c4cd3187dfe195e19cf87e17d3b95747961881",
          "OP_EQUAL"
        ]
      },
      "p2sh_redeem_script": {
        "script": [
          "OP_4",
          "0226733c182391e43d803292c4eb2403e059591fedc2203f2b590e8fd677214d87",
          "04cf65d59727afaa2a63a6dff145acc408a1d9e05f95f5ebc70e58f7342aa2972fe5690748be2d1358b2e4375bf6185416fa24db998d9501a165e3a2a577bc3649",
          "04cf65d59727afaa2a63a6dff145acc408a1d9e05f95f5ebc70e58f7342aa2972fe5690748be2d1358b2e4375bf6185416fa24db998d9501a165e3a2a577bc3649",
          "04cf65d59727afaa2a63a6dff145acc408a1d9e05f95f5ebc70e58f7342aa2972fe5690748be2d1358b2e4375bf6185416fa24db998d9501a165e3a2a577bc3649",
          "OP_4",
          BitcoinOpcode.opCheckMultiSig
        ]
      },
      "p2wsh_witness_script": null,
      "merkle_proof": null,
      "tree_script": null,
      "leaf_script": null,
      "xonly": null,
      "merkle_root": null,
      "leaf_scripts": null,
      "privateKeys": [
        "efd4d62709543c1bae8a22b44640856b48398b7d06f57958760a8695b9f5f171",
        "4c889b458ae4d09d51266ebb604396468412c2622a4283325f492325e85e9bf4",
        "efd4d62709543c1bae8a22b44640856b48398b7d06f57958760a8695b9f5f171"
      ],
      "address": "2N2huM42YZhWNEpyrChgedktkamNyCg5LD2"
    }
  ],
  [
    {
      "utxo": {
        "token": null,
        "tx_hash":
            "cff232c77e94445ad4853e1feeea245958d16aa12648e15669262e2d469bf5d7",
        "value": "5000",
        "vout": 1,
        "script_type": "P2SH/P2PKH",
        "block_height": 74188
      },
      "tx":
          "02000000000101b27e1a96b87778ffc06043e3f0aa113df690aec38d76eaad9326a79a2996454e0000000000fdffffff027145d0cfe80000001600147b458433d0c04323426ef88365bd4cfef141ac75881300000000000017a914568e9d619f7d76c4f7f620cb243b75ea8a9248448702473044022048597e35b9eae2936239291488e8d9fb837a9ae219d2b4ad02893409caf02b5902201580e7e98941f329bc49d2832383be3195ce928008d33c28dd6b731a22fe26360121030db9616d96a7b7a8656191b340f77e905ee2885a09a7a1e80b9c8b64ec746fb300000000",
      "scriptpubkey": {
        "script": [
          BitcoinOpcode.opHash160,
          "568e9d619f7d76c4f7f620cb243b75ea8a924844",
          "OP_EQUAL"
        ]
      },
      "p2sh_redeem_script": {
        "script": [
          BitcoinOpcode.op2,
          "0226733c182391e43d803292c4eb2403e059591fedc2203f2b590e8fd677214d87",
          "04cf65d59727afaa2a63a6dff145acc408a1d9e05f95f5ebc70e58f7342aa2972fe5690748be2d1358b2e4375bf6185416fa24db998d9501a165e3a2a577bc3649",
          "04cf65d59727afaa2a63a6dff145acc408a1d9e05f95f5ebc70e58f7342aa2972fe5690748be2d1358b2e4375bf6185416fa24db998d9501a165e3a2a577bc3649",
          "OP_3",
          BitcoinOpcode.opCheckMultiSig
        ]
      },
      "p2wsh_witness_script": null,
      "merkle_proof": null,
      "tree_script": null,
      "leaf_script": null,
      "xonly": null,
      "merkle_root": null,
      "leaf_scripts": null,
      "privateKeys": [
        "efd4d62709543c1bae8a22b44640856b48398b7d06f57958760a8695b9f5f171",
        "4c889b458ae4d09d51266ebb604396468412c2622a4283325f492325e85e9bf4",
        "efd4d62709543c1bae8a22b44640856b48398b7d06f57958760a8695b9f5f171"
      ],
      "address": "2N18twq4EiNgqCtKnvuCFN93Z9P9QHA4Mec"
    }
  ],
  [
    {
      "utxo": {
        "token": null,
        "tx_hash":
            "a5552bee92abec23f5ccd3d738efa8c93c02a6712d70420d22af4bb6056cddb4",
        "value": "2000",
        "vout": 1,
        "script_type": "P2SH/P2PK",
        "block_height": 74063
      },
      "tx":
          "0200000001cc159379a07f4a6b3b499865f21a6a7e0ae9da6af3d7501986ebc2a513f6a53001000000020151ffffffff02d0070000000000002200204ae81572f06e1b88fd5ced7a1a000945432e83e1551e6f721ee9c00b8cc33260d00700000000000017a914da1745e9b549bd0bfa1a569971c77eba30cd5a4b8700000000",
      "scriptpubkey": {
        "script": [
          BitcoinOpcode.opHash160,
          "da1745e9b549bd0bfa1a569971c77eba30cd5a4b",
          "OP_EQUAL"
        ]
      },
      "p2sh_redeem_script": {
        "script": ["OP_TRUE"]
      },
      "p2wsh_witness_script": null,
      "merkle_proof": null,
      "tree_script": null,
      "leaf_script": null,
      "xonly": null,
      "merkle_root": null,
      "leaf_scripts": null,
      "privateKeys": [],
      "address": "2ND8PB9RrfCaAcjfjP1Y6nAgFd9zWHYX4DN"
    }
  ],
  [
    {
      "utxo": {
        "token": null,
        "tx_hash":
            "bd563fe3648d8514f3d115e53507d9f7648e959e84ea684991b713dfc4d49c80",
        "value": "5000",
        "vout": 1,
        "script_type": "P2SH/P2WSH",
        "block_height": 74074
      },
      "tx":
          "02000000000101cc159379a07f4a6b3b499865f21a6a7e0ae9da6af3d7501986ebc2a513f6a5300000000000fdffffff02c0360100000000001600147b458433d0c04323426ef88365bd4cfef141ac75881300000000000017a91472c44f957fc011d97e3406667dca5b1c930c4026870247304402200c3d3097d34e6a17cf81722a3cc9d05f0497e07dc794f965f99ad7582bbed05902205ef1ac871989e90d170c553358879a55c902ea378676399e67b9ba691d52aa620121030db9616d96a7b7a8656191b340f77e905ee2885a09a7a1e80b9c8b64ec746fb300000000",
      "scriptpubkey": {
        "script": [
          BitcoinOpcode.opHash160,
          "72c44f957fc011d97e3406667dca5b1c930c4026",
          "OP_EQUAL"
        ]
      },
      "p2sh_redeem_script": {
        "script": [
          "OP_0",
          "4ae81572f06e1b88fd5ced7a1a000945432e83e1551e6f721ee9c00b8cc33260"
        ]
      },
      "p2wsh_witness_script": {
        "script": ["OP_TRUE"]
      },
      "merkle_proof": null,
      "tree_script": null,
      "leaf_script": null,
      "xonly": null,
      "merkle_root": null,
      "leaf_scripts": null,
      "privateKeys": [],
      "address": "2N3i4C56DiqfpdcAJsAdZd2xYpCQMRAroye"
    }
  ],
  [
    {
      "utxo": {
        "token": null,
        "tx_hash":
            "95bfa6f777e40b6c1d898af7fdcc1459db04abb6a80a7aa6a529fcc7784cecdf",
        "value": "100000",
        "vout": 0,
        "script_type": "P2SH/P2PK",
        "block_height": 73823
      },
      "tx":
          "02000000000103711e30714dcc4f591ca588f704302796e7caeaee971d9eece949ecece58139c60100000000ffffffff29c22de8f43dd9a3ca9746ccc75a88f6f9af1723c6ed77ee56198f4a9344e807010000006a47304402206f76483dd951a8af719ea4fc79ebadb84b8247dea6fef96f34f1c1fd941add7c022052f90ab3ed77202862907cb8ee5576519a5d4ec64ae014938f0adb8c5cb87f850121033a63a6e28d88b2521304ac445ab7b96e9e213b7443a66e7dfb7243a8efc3e3f7ffffffffdb5496bb029519cd43eec785826a71f62facc22d4df3fe2c8b129933a06b778c010000006a47304402201393210440c593c0254583d39e952f5de96ed62e6d5ac98e88f9740d45c5cf1c02205c928b40e9fc5e8d407abe4224e578e3fe8f039225f0ef176cd958bf274ddd020121033a63a6e28d88b2521304ac445ab7b96e9e213b7443a66e7dfb7243a8efc3e3f7ffffffff02a08601000000000017a9141849e0be5299d74ff8310a31ab6b93d9d98dad8087a08601000000000017a91477b7552b90584d3fb33ce53f2d28c5015fb3c408870247304402202f66e23c672bc2be71c96b040ff24a350cd99890858cb458608b3b481a7bbf1402200acd6156d4edc571ad63b8a438443e7bc8cee401368f4970f286ac825e6fb9a801210282e5edeaf54840126e9390549070d3f6f4dce19ef72b81a9eb019d43f5d3e83c000000000000",
      "scriptpubkey": {
        "script": [
          BitcoinOpcode.opHash160,
          "1849e0be5299d74ff8310a31ab6b93d9d98dad80",
          "OP_EQUAL"
        ]
      },
      "p2sh_redeem_script": {
        "script": [
          "0226733c182391e43d803292c4eb2403e059591fedc2203f2b590e8fd677214d87",
          BitcoinOpcode.opCheckSig,
        ]
      },
      "p2wsh_witness_script": null,
      "merkle_proof": null,
      "tree_script": null,
      "leaf_script": null,
      "xonly": null,
      "merkle_root": null,
      "leaf_scripts": null,
      "privateKeys": [
        "4c889b458ae4d09d51266ebb604396468412c2622a4283325f492325e85e9bf4"
      ],
      "address": "2MuTei1oXmMKbmnDBCfKCtrbWDdbnriYZXm"
    }
  ],
  [
    {
      "utxo": {
        "token": null,
        "tx_hash":
            "e515323a5ae747573a100219210788ccb3d385961280988e30b2bf82d2f69fc5",
        "value": "500000",
        "vout": 1,
        "script_type": "P2SH/P2WSH",
        "block_height": 73823
      },
      "tx":
          "02000000000101f44e19cb2c8ca6903c4e20dfb2f4f275d8ea2a451b981caab6ffcd2c86544dcd0000000000fdffffff025bdd5d09840100001600147b458433d0c04323426ef88365bd4cfef141ac7520a107000000000017a914e56a8afdd4489d018e28cdf5bc662aabeb3f0b838702473044022074e94367a4f1810c1431f50c71ec622c7fa3882e4444fa924167aa6d0817878d0220682d0b4e804d4103f743082ccad31d38cfb441c5c8ef4a798dc9ddb26f026b6d0121030db9616d96a7b7a8656191b340f77e905ee2885a09a7a1e80b9c8b64ec746fb300000000",
      "scriptpubkey": {
        "script": [
          BitcoinOpcode.opHash160,
          "e56a8afdd4489d018e28cdf5bc662aabeb3f0b83",
          "OP_EQUAL"
        ]
      },
      "p2sh_redeem_script": {
        "script": [
          "OP_0",
          "640f8c50d23cdfb05deeeb989304ba8e2d270eda368c3b0c024191c3370467a9"
        ]
      },
      "p2wsh_witness_script": {
        "script": [
          "OP_1",
          "03cf65d59727afaa2a63a6dff145acc408a1d9e05f95f5ebc70e58f7342aa2972f",
          "OP_1",
          BitcoinOpcode.opCheckMultiSig
        ]
      },
      "merkle_proof": null,
      "tree_script": null,
      "leaf_script": null,
      "xonly": null,
      "merkle_root": null,
      "leaf_scripts": null,
      "privateKeys": [
        "efd4d62709543c1bae8a22b44640856b48398b7d06f57958760a8695b9f5f171"
      ],
      "address": "2NEAGMwppAvbWbbuemzwFAf3HBj3WKDFk37"
    }
  ],
  [
    {
      "utxo": {
        "token": null,
        "tx_hash":
            "4cf4e0a91dda7f9213dd6fa32bbf87f060cdd8e09d32020ded446f902ce5ca6d",
        "value": "500000",
        "vout": 1,
        "script_type": "P2TR",
        "block_height": 73342
      },
      "tx":
          "02000000000101ffbf52e6c9b811376d5f9d9f3651e9e46eaca2fbbd779b405192154acaf0684c0000000000fdffffff02b6aa71d2e80000001600147b458433d0c04323426ef88365bd4cfef141ac7520a1070000000000225120ebc2278b19d45e8ca50b0c67e7e71cb7771a616ec3f81924206337793e741d170247304402207a8cb90431ff34f4488595dc214401623ff9581daefd4b6c376ebd6a363992b00220540f79dda8fdc9a6529995eab81645ca0844fcb108825792ff115eb70c3d030b0121030db9616d96a7b7a8656191b340f77e905ee2885a09a7a1e80b9c8b64ec746fb300000000",
      "scriptpubkey": {
        "script": [
          "OP_1",
          "ebc2278b19d45e8ca50b0c67e7e71cb7771a616ec3f81924206337793e741d17"
        ]
      },
      "p2sh_redeem_script": null,
      "p2wsh_witness_script": null,
      "merkle_proof": null,
      "tree_script": null,
      "leaf_script": null,
      "xonly":
          "16cc244510460759a0bc67467f733f5f136d031069791e8ae02833c0cbb8de67",
      "merkle_root": null,
      "leaf_scripts": null,
      "privateKeys": [
        "8e1a25ab6fde426a2197006ef50bad154e89401b9b13876fa8ae4ec017a94ef5"
      ],
      "address":
          "tb1pa0pz0zce630gefgtp3n70ecukam35ctwc0upjfpqvvmhj0n5r5tsmn7q6a"
    }
  ],
  [
    {
      "utxo": {
        "token": null,
        "tx_hash":
            "eaf23538c12b8a8c84209ee5e46cd37ebc899a2bbee504a802710e2738c9098e",
        "value": "5000",
        "vout": 1,
        "script_type": "P2WPKH",
        "block_height": 73941
      },
      "tx":
          "020000000001013d04977f523481ea2b7f4fed681f3b0e9c2b1d1d89713a5b57bdca4e40d92eaa0000000000fdffffff022ba885d0e80000001600147b458433d0c04323426ef88365bd4cfef141ac758813000000000000160014b273443219d7f2652349caceecbb641cceb7b922024730440220657612293f93e3f1961d0eaee36f82c25057843816450052b518d819c24b863602201b58d87e4d965ef4c3ef1ea7caea4058d521aa4db793edac2dc78ffc217891800121030db9616d96a7b7a8656191b340f77e905ee2885a09a7a1e80b9c8b64ec746fb300000000",
      "scriptpubkey": {
        "script": ["OP_0", "b273443219d7f2652349caceecbb641cceb7b922"]
      },
      "p2sh_redeem_script": null,
      "p2wsh_witness_script": null,
      "merkle_proof": null,
      "tree_script": null,
      "leaf_script": null,
      "xonly": null,
      "merkle_root": null,
      "leaf_scripts": null,
      "privateKeys": [],
      "address": "tb1qkfe5gvse6lex2g6fet8wewmyrn8t0wfzdnn599"
    }
  ],
  [
    {
      "utxo": {
        "token": null,
        "tx_hash":
            "95bfa6f777e40b6c1d898af7fdcc1459db04abb6a80a7aa6a529fcc7784cecdf",
        "value": "100000",
        "vout": 1,
        "script_type": "P2SH/P2PKH",
        "block_height": 73823
      },
      "tx":
          "02000000000103711e30714dcc4f591ca588f704302796e7caeaee971d9eece949ecece58139c60100000000ffffffff29c22de8f43dd9a3ca9746ccc75a88f6f9af1723c6ed77ee56198f4a9344e807010000006a47304402206f76483dd951a8af719ea4fc79ebadb84b8247dea6fef96f34f1c1fd941add7c022052f90ab3ed77202862907cb8ee5576519a5d4ec64ae014938f0adb8c5cb87f850121033a63a6e28d88b2521304ac445ab7b96e9e213b7443a66e7dfb7243a8efc3e3f7ffffffffdb5496bb029519cd43eec785826a71f62facc22d4df3fe2c8b129933a06b778c010000006a47304402201393210440c593c0254583d39e952f5de96ed62e6d5ac98e88f9740d45c5cf1c02205c928b40e9fc5e8d407abe4224e578e3fe8f039225f0ef176cd958bf274ddd020121033a63a6e28d88b2521304ac445ab7b96e9e213b7443a66e7dfb7243a8efc3e3f7ffffffff02a08601000000000017a9141849e0be5299d74ff8310a31ab6b93d9d98dad8087a08601000000000017a91477b7552b90584d3fb33ce53f2d28c5015fb3c408870247304402202f66e23c672bc2be71c96b040ff24a350cd99890858cb458608b3b481a7bbf1402200acd6156d4edc571ad63b8a438443e7bc8cee401368f4970f286ac825e6fb9a801210282e5edeaf54840126e9390549070d3f6f4dce19ef72b81a9eb019d43f5d3e83c000000000000",
      "scriptpubkey": {
        "script": [
          BitcoinOpcode.opHash160,
          "77b7552b90584d3fb33ce53f2d28c5015fb3c408",
          "OP_EQUAL"
        ]
      },
      "p2sh_redeem_script": {
        "script": [
          BitcoinOpcode.opDup,
          BitcoinOpcode.opHash160,
          "b273443219d7f2652349caceecbb641cceb7b922",
          BitcoinOpcode.opEqualVerify,
          BitcoinOpcode.opCheckSig,
        ]
      },
      "p2wsh_witness_script": null,
      "merkle_proof": null,
      "tree_script": null,
      "leaf_script": null,
      "xonly": null,
      "merkle_root": null,
      "leaf_scripts": null,
      "privateKeys": [
        "efd4d62709543c1bae8a22b44640856b48398b7d06f57958760a8695b9f5f171"
      ],
      "address": "2N4AE2HpX5A2ZJxFSDb5gJSeg7FpxgJGHHj"
    }
  ],
  [
    {
      "utxo": {
        "token": null,
        "tx_hash":
            "5ff93677aeb3db97ed9dbbeb690922fcc9b0782dac27e746a9130e390e29760b",
        "value": "500000",
        "vout": 1,
        "script_type": "P2SH/P2WPKH",
        "block_height": 73823
      },
      "tx":
          "02000000000101db5496bb029519cd43eec785826a71f62facc22d4df3fe2c8b129933a06b778c0000000000fdffffff02b5470eab1d0000001600147b458433d0c04323426ef88365bd4cfef141ac7520a107000000000017a9144185f108a273961c1641b503ea1deda5fd446886870247304402201959606b8cee8eca6184990766d723b049841580b8063065f8f925fe1f69575a02200fbcb9c517af1b83d88d60b18dd4bb560debc943dddd0c2ceb4aca638960a4750121030db9616d96a7b7a8656191b340f77e905ee2885a09a7a1e80b9c8b64ec746fb300000000",
      "scriptpubkey": {
        "script": [
          BitcoinOpcode.opHash160,
          "4185f108a273961c1641b503ea1deda5fd446886",
          "OP_EQUAL"
        ]
      },
      "p2sh_redeem_script": {
        "script": ["OP_0", "25761a501d439b764831e1a9c1b50c48c7cb2af1"]
      },
      "p2wsh_witness_script": null,
      "merkle_proof": null,
      "tree_script": null,
      "leaf_script": null,
      "xonly": null,
      "merkle_root": null,
      "leaf_scripts": null,
      "privateKeys": [
        "4c889b458ae4d09d51266ebb604396468412c2622a4283325f492325e85e9bf4"
      ],
      "address": "2MyDgNB44xt7bMtJLq9rP7zGENh1pxXU48Z"
    }
  ],
  [
    {
      "utxo": {
        "token": null,
        "tx_hash":
            "a1eb2001c7941f3f9c7a8cbbd25829148c40b9766e821c7afc2770defab1b196",
        "value": "500000",
        "vout": 1,
        "script_type": "P2SH/P2PK",
        "block_height": 74166
      },
      "tx":
          "02000000000101beffc3e46f588727b7d4f7a060acc0f9a546752b04f2ed461d4cc539b217420a0000000000fdffffff025f63dd08840100001600147b458433d0c04323426ef88365bd4cfef141ac7520a107000000000017a91473d9d46bdadd9cb20c68330385d21bbf457500f28702473044022055ffaa4dd3ddfe16a681a8cc07bce7c64aea0e955806fc4abc475e79e9dd1801022053cee4bf5366e32bdeb976fc654d65ca798dfebdb05f3118ceb8dda517616d6e0121030db9616d96a7b7a8656191b340f77e905ee2885a09a7a1e80b9c8b64ec746fb300000000",
      "scriptpubkey": {
        "script": [
          BitcoinOpcode.opHash160,
          "73d9d46bdadd9cb20c68330385d21bbf457500f2",
          "OP_EQUAL"
        ]
      },
      "p2sh_redeem_script": {
        "script": [
          "043a1a902bf14317faffae2568fdcbdc188d9455ae60a2dfbf5dc3b226d784497726f6523d1cd0da24863f8d943dd1fd3c7030efc2636d3238bec7d558c075ce7e",
          BitcoinOpcode.opCheckSig,
        ]
      },
      "p2wsh_witness_script": null,
      "merkle_proof": null,
      "tree_script": null,
      "leaf_script": null,
      "xonly": null,
      "merkle_root": null,
      "leaf_scripts": null,
      "privateKeys": [
        "33053373fe566dc4f77941a449c20dfa356221dfadec5e3d507c58279e0e1991"
      ],
      "address": "2N3oneRSj5C4jUWsSFmAkY6FX45kW7tUUP5"
    }
  ],
  [
    {
      "utxo": {
        "token": null,
        "tx_hash":
            "0a4217b239c54c1d46edf2042b7546a5f9c0ac60a0f7d4b72787586fe4c3ffbe",
        "value": "500000",
        "vout": 1,
        "script_type": "P2PKH",
        "block_height": 74166
      },
      "tx":
          "02000000000101ee63737203248a1e03e2bc03318e753a91ac988de2f4f5cdaaf0d5195b0a0ead0000000000fdffffff02ed0de508840100001600147b458433d0c04323426ef88365bd4cfef141ac7520a10700000000001976a91458ed74ce76848830523000e26d27aa2f292bcce788ac02473044022061165ee01f36822393c0705b4afd2b634929f2344f42674dc5299af4fa76a15c0220077dd5f8a746993c96b117c3ed6ed269a7d539c9d690422fc92e49f2185cd13b0121030db9616d96a7b7a8656191b340f77e905ee2885a09a7a1e80b9c8b64ec746fb300000000",
      "scriptpubkey": {
        "script": [
          BitcoinOpcode.opDup,
          BitcoinOpcode.opHash160,
          "58ed74ce76848830523000e26d27aa2f292bcce7",
          BitcoinOpcode.opEqualVerify,
          BitcoinOpcode.opCheckSig,
        ]
      },
      "p2sh_redeem_script": null,
      "p2wsh_witness_script": null,
      "merkle_proof": null,
      "tree_script": null,
      "leaf_script": null,
      "xonly": null,
      "merkle_root": null,
      "leaf_scripts": null,
      "privateKeys": [
        "39d9f93498ab9c5e833b6e22493be2aaa8d4daabb141afac801fccbf1298cd05"
      ],
      "address": "modADgm9UHadfWLQVKeHapbHjETkwwY6zs"
    }
  ]
];
